{
	"contracts/VariableEx.sol": {
		"VariableEx": {
			"abi": [
				{
					"inputs": [],
					"name": "getMyBool",
					"outputs": [
						{
							"internalType": "bool",
							"name": "",
							"type": "bool"
						}
					],
					"stateMutability": "view",
					"type": "function"
				},
				{
					"inputs": [],
					"name": "myBool",
					"outputs": [
						{
							"internalType": "bool",
							"name": "",
							"type": "bool"
						}
					],
					"stateMutability": "view",
					"type": "function"
				},
				{
					"inputs": [],
					"name": "myUint",
					"outputs": [
						{
							"internalType": "uint256",
							"name": "",
							"type": "uint256"
						}
					],
					"stateMutability": "view",
					"type": "function"
				},
				{
					"inputs": [
						{
							"internalType": "uint256",
							"name": "_myUint",
							"type": "uint256"
						}
					],
					"name": "setValue",
					"outputs": [],
					"stateMutability": "nonpayable",
					"type": "function"
				},
				{
					"inputs": [],
					"name": "toggleMyBool",
					"outputs": [],
					"stateMutability": "nonpayable",
					"type": "function"
				}
			],
			"devdoc": {
				"kind": "dev",
				"methods": {},
				"version": 1
			},
			"evm": {
				"assembly": "    /* \"contracts/VariableEx.sol\":74:391  contract VariableEx {\r... */\n  mstore(0x40, 0x80)\n  callvalue\n  dup1\n  iszero\n  tag_1\n  jumpi\n  0x00\n  dup1\n  revert\ntag_1:\n  pop\n  dataSize(sub_0)\n  dup1\n  dataOffset(sub_0)\n  0x00\n  codecopy\n  0x00\n  return\nstop\n\nsub_0: assembly {\n        /* \"contracts/VariableEx.sol\":74:391  contract VariableEx {\r... */\n      mstore(0x40, 0x80)\n      callvalue\n      dup1\n      iszero\n      tag_1\n      jumpi\n      0x00\n      dup1\n      revert\n    tag_1:\n      pop\n      jumpi(tag_2, lt(calldatasize, 0x04))\n      shr(0xe0, calldataload(0x00))\n      dup1\n      0x06540f7e\n      eq\n      tag_3\n      jumpi\n      dup1\n      0x28832a86\n      eq\n      tag_4\n      jumpi\n      dup1\n      0x55241077\n      eq\n      tag_5\n      jumpi\n      dup1\n      0x6deecdbe\n      eq\n      tag_6\n      jumpi\n      dup1\n      0xc96e9722\n      eq\n      tag_7\n      jumpi\n    tag_2:\n      0x00\n      dup1\n      revert\n        /* \"contracts/VariableEx.sol\":101:119  uint public myUint */\n    tag_3:\n      tag_8\n      tag_9\n      jump\t// in\n    tag_8:\n      mload(0x40)\n      tag_10\n      swap2\n      swap1\n      tag_11\n      jump\t// in\n    tag_10:\n      mload(0x40)\n      dup1\n      swap2\n      sub\n      swap1\n      return\n        /* \"contracts/VariableEx.sol\":234:299  function toggleMyBool() public{\r... */\n    tag_4:\n      tag_12\n      tag_13\n      jump\t// in\n    tag_12:\n      stop\n        /* \"contracts/VariableEx.sol\":153:226  function setValue(uint _myUint) public{\r... */\n    tag_5:\n      tag_14\n      0x04\n      dup1\n      calldatasize\n      sub\n      dup2\n      add\n      swap1\n      tag_15\n      swap2\n      swap1\n      tag_16\n      jump\t// in\n    tag_15:\n      tag_17\n      jump\t// in\n    tag_14:\n      stop\n        /* \"contracts/VariableEx.sol\":126:144  bool public myBool */\n    tag_6:\n      tag_18\n      tag_19\n      jump\t// in\n    tag_18:\n      mload(0x40)\n      tag_20\n      swap2\n      swap1\n      tag_21\n      jump\t// in\n    tag_20:\n      mload(0x40)\n      dup1\n      swap2\n      sub\n      swap1\n      return\n        /* \"contracts/VariableEx.sol\":307:386  function getMyBool() public view returns(bool) {\r... */\n    tag_7:\n      tag_22\n      tag_23\n      jump\t// in\n    tag_22:\n      mload(0x40)\n      tag_24\n      swap2\n      swap1\n      tag_21\n      jump\t// in\n    tag_24:\n      mload(0x40)\n      dup1\n      swap2\n      sub\n      swap1\n      return\n        /* \"contracts/VariableEx.sol\":101:119  uint public myUint */\n    tag_9:\n      sload(0x00)\n      dup2\n      jump\t// out\n        /* \"contracts/VariableEx.sol\":234:299  function toggleMyBool() public{\r... */\n    tag_13:\n        /* \"contracts/VariableEx.sol\":285:291  myBool */\n      0x01\n      0x00\n      swap1\n      sload\n      swap1\n      0x0100\n      exp\n      swap1\n      div\n      0xff\n      and\n        /* \"contracts/VariableEx.sol\":284:291  !myBool */\n      iszero\n        /* \"contracts/VariableEx.sol\":275:281  myBool */\n      0x01\n      0x00\n        /* \"contracts/VariableEx.sol\":275:291  myBool = !myBool */\n      0x0100\n      exp\n      dup2\n      sload\n      dup2\n      0xff\n      mul\n      not\n      and\n      swap1\n      dup4\n      iszero\n      iszero\n      mul\n      or\n      swap1\n      sstore\n      pop\n        /* \"contracts/VariableEx.sol\":234:299  function toggleMyBool() public{\r... */\n      jump\t// out\n        /* \"contracts/VariableEx.sol\":153:226  function setValue(uint _myUint) public{\r... */\n    tag_17:\n        /* \"contracts/VariableEx.sol\":211:218  _myUint */\n      dup1\n        /* \"contracts/VariableEx.sol\":202:208  myUint */\n      0x00\n        /* \"contracts/VariableEx.sol\":202:218  myUint = _myUint */\n      dup2\n      swap1\n      sstore\n      pop\n        /* \"contracts/VariableEx.sol\":153:226  function setValue(uint _myUint) public{\r... */\n      pop\n      jump\t// out\n        /* \"contracts/VariableEx.sol\":126:144  bool public myBool */\n    tag_19:\n      0x01\n      0x00\n      swap1\n      sload\n      swap1\n      0x0100\n      exp\n      swap1\n      div\n      0xff\n      and\n      dup2\n      jump\t// out\n        /* \"contracts/VariableEx.sol\":307:386  function getMyBool() public view returns(bool) {\r... */\n    tag_23:\n        /* \"contracts/VariableEx.sol\":348:352  bool */\n      0x00\n        /* \"contracts/VariableEx.sol\":372:378  myBool */\n      0x01\n      0x00\n      swap1\n      sload\n      swap1\n      0x0100\n      exp\n      swap1\n      div\n      0xff\n      and\n        /* \"contracts/VariableEx.sol\":365:378  return myBool */\n      swap1\n      pop\n        /* \"contracts/VariableEx.sol\":307:386  function getMyBool() public view returns(bool) {\r... */\n      swap1\n      jump\t// out\n        /* \"#utility.yul\":7:146   */\n    tag_29:\n        /* \"#utility.yul\":53:58   */\n      0x00\n        /* \"#utility.yul\":91:97   */\n      dup2\n        /* \"#utility.yul\":78:98   */\n      calldataload\n        /* \"#utility.yul\":69:98   */\n      swap1\n      pop\n        /* \"#utility.yul\":107:140   */\n      tag_31\n        /* \"#utility.yul\":134:139   */\n      dup2\n        /* \"#utility.yul\":107:140   */\n      tag_32\n      jump\t// in\n    tag_31:\n        /* \"#utility.yul\":7:146   */\n      swap3\n      swap2\n      pop\n      pop\n      jump\t// out\n        /* \"#utility.yul\":152:481   */\n    tag_16:\n        /* \"#utility.yul\":211:217   */\n      0x00\n        /* \"#utility.yul\":260:262   */\n      0x20\n        /* \"#utility.yul\":248:257   */\n      dup3\n        /* \"#utility.yul\":239:246   */\n      dup5\n        /* \"#utility.yul\":235:258   */\n      sub\n        /* \"#utility.yul\":231:263   */\n      slt\n        /* \"#utility.yul\":228:347   */\n      iszero\n      tag_34\n      jumpi\n        /* \"#utility.yul\":266:345   */\n      tag_35\n      tag_36\n      jump\t// in\n    tag_35:\n        /* \"#utility.yul\":228:347   */\n    tag_34:\n        /* \"#utility.yul\":386:387   */\n      0x00\n        /* \"#utility.yul\":411:464   */\n      tag_37\n        /* \"#utility.yul\":456:463   */\n      dup5\n        /* \"#utility.yul\":447:453   */\n      dup3\n        /* \"#utility.yul\":436:445   */\n      dup6\n        /* \"#utility.yul\":432:454   */\n      add\n        /* \"#utility.yul\":411:464   */\n      tag_29\n      jump\t// in\n    tag_37:\n        /* \"#utility.yul\":401:464   */\n      swap2\n      pop\n        /* \"#utility.yul\":357:474   */\n      pop\n        /* \"#utility.yul\":152:481   */\n      swap3\n      swap2\n      pop\n      pop\n      jump\t// out\n        /* \"#utility.yul\":487:596   */\n    tag_38:\n        /* \"#utility.yul\":568:589   */\n      tag_40\n        /* \"#utility.yul\":583:588   */\n      dup2\n        /* \"#utility.yul\":568:589   */\n      tag_41\n      jump\t// in\n    tag_40:\n        /* \"#utility.yul\":563:566   */\n      dup3\n        /* \"#utility.yul\":556:590   */\n      mstore\n        /* \"#utility.yul\":487:596   */\n      pop\n      pop\n      jump\t// out\n        /* \"#utility.yul\":602:720   */\n    tag_42:\n        /* \"#utility.yul\":689:713   */\n      tag_44\n        /* \"#utility.yul\":707:712   */\n      dup2\n        /* \"#utility.yul\":689:713   */\n      tag_45\n      jump\t// in\n    tag_44:\n        /* \"#utility.yul\":684:687   */\n      dup3\n        /* \"#utility.yul\":677:714   */\n      mstore\n        /* \"#utility.yul\":602:720   */\n      pop\n      pop\n      jump\t// out\n        /* \"#utility.yul\":726:936   */\n    tag_21:\n        /* \"#utility.yul\":813:817   */\n      0x00\n        /* \"#utility.yul\":851:853   */\n      0x20\n        /* \"#utility.yul\":840:849   */\n      dup3\n        /* \"#utility.yul\":836:854   */\n      add\n        /* \"#utility.yul\":828:854   */\n      swap1\n      pop\n        /* \"#utility.yul\":864:929   */\n      tag_47\n        /* \"#utility.yul\":926:927   */\n      0x00\n        /* \"#utility.yul\":915:924   */\n      dup4\n        /* \"#utility.yul\":911:928   */\n      add\n        /* \"#utility.yul\":902:908   */\n      dup5\n        /* \"#utility.yul\":864:929   */\n      tag_38\n      jump\t// in\n    tag_47:\n        /* \"#utility.yul\":726:936   */\n      swap3\n      swap2\n      pop\n      pop\n      jump\t// out\n        /* \"#utility.yul\":942:1164   */\n    tag_11:\n        /* \"#utility.yul\":1035:1039   */\n      0x00\n        /* \"#utility.yul\":1073:1075   */\n      0x20\n        /* \"#utility.yul\":1062:1071   */\n      dup3\n        /* \"#utility.yul\":1058:1076   */\n      add\n        /* \"#utility.yul\":1050:1076   */\n      swap1\n      pop\n        /* \"#utility.yul\":1086:1157   */\n      tag_49\n        /* \"#utility.yul\":1154:1155   */\n      0x00\n        /* \"#utility.yul\":1143:1152   */\n      dup4\n        /* \"#utility.yul\":1139:1156   */\n      add\n        /* \"#utility.yul\":1130:1136   */\n      dup5\n        /* \"#utility.yul\":1086:1157   */\n      tag_42\n      jump\t// in\n    tag_49:\n        /* \"#utility.yul\":942:1164   */\n      swap3\n      swap2\n      pop\n      pop\n      jump\t// out\n        /* \"#utility.yul\":1251:1341   */\n    tag_41:\n        /* \"#utility.yul\":1285:1292   */\n      0x00\n        /* \"#utility.yul\":1328:1333   */\n      dup2\n        /* \"#utility.yul\":1321:1334   */\n      iszero\n        /* \"#utility.yul\":1314:1335   */\n      iszero\n        /* \"#utility.yul\":1303:1335   */\n      swap1\n      pop\n        /* \"#utility.yul\":1251:1341   */\n      swap2\n      swap1\n      pop\n      jump\t// out\n        /* \"#utility.yul\":1347:1424   */\n    tag_45:\n        /* \"#utility.yul\":1384:1391   */\n      0x00\n        /* \"#utility.yul\":1413:1418   */\n      dup2\n        /* \"#utility.yul\":1402:1418   */\n      swap1\n      pop\n        /* \"#utility.yul\":1347:1424   */\n      swap2\n      swap1\n      pop\n      jump\t// out\n        /* \"#utility.yul\":1553:1670   */\n    tag_36:\n        /* \"#utility.yul\":1662:1663   */\n      0x00\n        /* \"#utility.yul\":1659:1660   */\n      dup1\n        /* \"#utility.yul\":1652:1664   */\n      revert\n        /* \"#utility.yul\":1676:1798   */\n    tag_32:\n        /* \"#utility.yul\":1749:1773   */\n      tag_58\n        /* \"#utility.yul\":1767:1772   */\n      dup2\n        /* \"#utility.yul\":1749:1773   */\n      tag_45\n      jump\t// in\n    tag_58:\n        /* \"#utility.yul\":1742:1747   */\n      dup2\n        /* \"#utility.yul\":1739:1774   */\n      eq\n        /* \"#utility.yul\":1729:1792   */\n      tag_59\n      jumpi\n        /* \"#utility.yul\":1788:1789   */\n      0x00\n        /* \"#utility.yul\":1785:1786   */\n      dup1\n        /* \"#utility.yul\":1778:1790   */\n      revert\n        /* \"#utility.yul\":1729:1792   */\n    tag_59:\n        /* \"#utility.yul\":1676:1798   */\n      pop\n      jump\t// out\n\n    auxdata: 0xa2646970667358221220d4d7659b22fd7b3540de9b9572af20bdd78d1166e8300913b26ab296552017b764736f6c63430008070033\n}\n",
				"bytecode": {
					"linkReferences": {},
					"object": "608060405234801561001057600080fd5b50610240806100206000396000f3fe608060405234801561001057600080fd5b50600436106100575760003560e01c806306540f7e1461005c57806328832a861461007a57806355241077146100845780636deecdbe146100a0578063c96e9722146100be575b600080fd5b6100646100dc565b60405161007191906101bd565b60405180910390f35b6100826100e2565b005b61009e60048036038101906100999190610157565b61010e565b005b6100a8610118565b6040516100b591906101a2565b60405180910390f35b6100c661012b565b6040516100d391906101a2565b60405180910390f35b60005481565b600160009054906101000a900460ff1615600160006101000a81548160ff021916908315150217905550565b8060008190555050565b600160009054906101000a900460ff1681565b6000600160009054906101000a900460ff16905090565b600081359050610151816101f3565b92915050565b60006020828403121561016d5761016c6101ee565b5b600061017b84828501610142565b91505092915050565b61018d816101d8565b82525050565b61019c816101e4565b82525050565b60006020820190506101b76000830184610184565b92915050565b60006020820190506101d26000830184610193565b92915050565b60008115159050919050565b6000819050919050565b600080fd5b6101fc816101e4565b811461020757600080fd5b5056fea2646970667358221220d4d7659b22fd7b3540de9b9572af20bdd78d1166e8300913b26ab296552017b764736f6c63430008070033",
					"opcodes": "PUSH1 0x80 PUSH1 0x40 MSTORE CALLVALUE DUP1 ISZERO PUSH2 0x10 JUMPI PUSH1 0x0 DUP1 REVERT JUMPDEST POP PUSH2 0x240 DUP1 PUSH2 0x20 PUSH1 0x0 CODECOPY PUSH1 0x0 RETURN INVALID PUSH1 0x80 PUSH1 0x40 MSTORE CALLVALUE DUP1 ISZERO PUSH2 0x10 JUMPI PUSH1 0x0 DUP1 REVERT JUMPDEST POP PUSH1 0x4 CALLDATASIZE LT PUSH2 0x57 JUMPI PUSH1 0x0 CALLDATALOAD PUSH1 0xE0 SHR DUP1 PUSH4 0x6540F7E EQ PUSH2 0x5C JUMPI DUP1 PUSH4 0x28832A86 EQ PUSH2 0x7A JUMPI DUP1 PUSH4 0x55241077 EQ PUSH2 0x84 JUMPI DUP1 PUSH4 0x6DEECDBE EQ PUSH2 0xA0 JUMPI DUP1 PUSH4 0xC96E9722 EQ PUSH2 0xBE JUMPI JUMPDEST PUSH1 0x0 DUP1 REVERT JUMPDEST PUSH2 0x64 PUSH2 0xDC JUMP JUMPDEST PUSH1 0x40 MLOAD PUSH2 0x71 SWAP2 SWAP1 PUSH2 0x1BD JUMP JUMPDEST PUSH1 0x40 MLOAD DUP1 SWAP2 SUB SWAP1 RETURN JUMPDEST PUSH2 0x82 PUSH2 0xE2 JUMP JUMPDEST STOP JUMPDEST PUSH2 0x9E PUSH1 0x4 DUP1 CALLDATASIZE SUB DUP2 ADD SWAP1 PUSH2 0x99 SWAP2 SWAP1 PUSH2 0x157 JUMP JUMPDEST PUSH2 0x10E JUMP JUMPDEST STOP JUMPDEST PUSH2 0xA8 PUSH2 0x118 JUMP JUMPDEST PUSH1 0x40 MLOAD PUSH2 0xB5 SWAP2 SWAP1 PUSH2 0x1A2 JUMP JUMPDEST PUSH1 0x40 MLOAD DUP1 SWAP2 SUB SWAP1 RETURN JUMPDEST PUSH2 0xC6 PUSH2 0x12B JUMP JUMPDEST PUSH1 0x40 MLOAD PUSH2 0xD3 SWAP2 SWAP1 PUSH2 0x1A2 JUMP JUMPDEST PUSH1 0x40 MLOAD DUP1 SWAP2 SUB SWAP1 RETURN JUMPDEST PUSH1 0x0 SLOAD DUP2 JUMP JUMPDEST PUSH1 0x1 PUSH1 0x0 SWAP1 SLOAD SWAP1 PUSH2 0x100 EXP SWAP1 DIV PUSH1 0xFF AND ISZERO PUSH1 0x1 PUSH1 0x0 PUSH2 0x100 EXP DUP2 SLOAD DUP2 PUSH1 0xFF MUL NOT AND SWAP1 DUP4 ISZERO ISZERO MUL OR SWAP1 SSTORE POP JUMP JUMPDEST DUP1 PUSH1 0x0 DUP2 SWAP1 SSTORE POP POP JUMP JUMPDEST PUSH1 0x1 PUSH1 0x0 SWAP1 SLOAD SWAP1 PUSH2 0x100 EXP SWAP1 DIV PUSH1 0xFF AND DUP2 JUMP JUMPDEST PUSH1 0x0 PUSH1 0x1 PUSH1 0x0 SWAP1 SLOAD SWAP1 PUSH2 0x100 EXP SWAP1 DIV PUSH1 0xFF AND SWAP1 POP SWAP1 JUMP JUMPDEST PUSH1 0x0 DUP2 CALLDATALOAD SWAP1 POP PUSH2 0x151 DUP2 PUSH2 0x1F3 JUMP JUMPDEST SWAP3 SWAP2 POP POP JUMP JUMPDEST PUSH1 0x0 PUSH1 0x20 DUP3 DUP5 SUB SLT ISZERO PUSH2 0x16D JUMPI PUSH2 0x16C PUSH2 0x1EE JUMP JUMPDEST JUMPDEST PUSH1 0x0 PUSH2 0x17B DUP5 DUP3 DUP6 ADD PUSH2 0x142 JUMP JUMPDEST SWAP2 POP POP SWAP3 SWAP2 POP POP JUMP JUMPDEST PUSH2 0x18D DUP2 PUSH2 0x1D8 JUMP JUMPDEST DUP3 MSTORE POP POP JUMP JUMPDEST PUSH2 0x19C DUP2 PUSH2 0x1E4 JUMP JUMPDEST DUP3 MSTORE POP POP JUMP JUMPDEST PUSH1 0x0 PUSH1 0x20 DUP3 ADD SWAP1 POP PUSH2 0x1B7 PUSH1 0x0 DUP4 ADD DUP5 PUSH2 0x184 JUMP JUMPDEST SWAP3 SWAP2 POP POP JUMP JUMPDEST PUSH1 0x0 PUSH1 0x20 DUP3 ADD SWAP1 POP PUSH2 0x1D2 PUSH1 0x0 DUP4 ADD DUP5 PUSH2 0x193 JUMP JUMPDEST SWAP3 SWAP2 POP POP JUMP JUMPDEST PUSH1 0x0 DUP2 ISZERO ISZERO SWAP1 POP SWAP2 SWAP1 POP JUMP JUMPDEST PUSH1 0x0 DUP2 SWAP1 POP SWAP2 SWAP1 POP JUMP JUMPDEST PUSH1 0x0 DUP1 REVERT JUMPDEST PUSH2 0x1FC DUP2 PUSH2 0x1E4 JUMP JUMPDEST DUP2 EQ PUSH2 0x207 JUMPI PUSH1 0x0 DUP1 REVERT JUMPDEST POP JUMP INVALID LOG2 PUSH5 0x6970667358 0x22 SLT KECCAK256 0xD4 0xD7 PUSH6 0x9B22FD7B3540 0xDE SWAP12 SWAP6 PUSH19 0xAF20BDD78D1166E8300913B26AB296552017B7 PUSH5 0x736F6C6343 STOP ADDMOD SMOD STOP CALLER "
				},
				"gasEstimates": {
					"creation": {
						"codeDepositCost": "115200",
						"executionCost": "159",
						"totalCost": "115359"
					},
					"external": {
						"getMyBool()": "2545",
						"myBool()": "2515",
						"myUint()": "2407",
						"setValue(uint256)": "22542",
						"toggleMyBool()": "26550"
					}
				},
				"methodIdentifiers": {
					"getMyBool()": "c96e9722",
					"myBool()": "6deecdbe",
					"myUint()": "06540f7e",
					"setValue(uint256)": "55241077",
					"toggleMyBool()": "28832a86"
				}
			},
			"storageLayout": {
				"storage": [
					{
						"astId": 3,
						"contract": "contracts/VariableEx.sol:VariableEx",
						"label": "myUint",
						"offset": 0,
						"slot": "0",
						"type": "t_uint256"
					},
					{
						"astId": 5,
						"contract": "contracts/VariableEx.sol:VariableEx",
						"label": "myBool",
						"offset": 0,
						"slot": "1",
						"type": "t_bool"
					}
				],
				"types": {
					"t_bool": {
						"encoding": "inplace",
						"label": "bool",
						"numberOfBytes": "1"
					},
					"t_uint256": {
						"encoding": "inplace",
						"label": "uint256",
						"numberOfBytes": "32"
					}
				}
			},
			"userdoc": {
				"kind": "user",
				"methods": {},
				"version": 1
			}
		}
	}
}