{
	"data": {
		"bytecode": {
			"linkReferences": {},
			"object": "608060405234801561001057600080fd5b506102dd806100206000396000f3fe608060405234801561001057600080fd5b50600436106100625760003560e01c806306540f7e1461006757806328832a8614610085578063552410771461008f5780636deecdbe146100ab578063c96e9722146100c9578063eb1b30d9146100e7575b600080fd5b61006f610103565b60405161007c9190610243565b60405180910390f35b61008d610109565b005b6100a960048036038101906100a491906101dd565b610135565b005b6100b361013f565b6040516100c09190610228565b60405180910390f35b6100d1610152565b6040516100de9190610228565b60405180910390f35b61010160048036038101906100fc91906101b0565b610169565b005b60005481565b600160009054906101000a900460ff1615600160006101000a81548160ff021916908315150217905550565b8060008190555050565b600160009054906101000a900460ff1681565b6000600160009054906101000a900460ff16905090565b80600160006101000a81548160ff02191690831515021790555050565b60008135905061019581610279565b92915050565b6000813590506101aa81610290565b92915050565b6000602082840312156101c6576101c5610274565b5b60006101d484828501610186565b91505092915050565b6000602082840312156101f3576101f2610274565b5b60006102018482850161019b565b91505092915050565b6102138161025e565b82525050565b6102228161026a565b82525050565b600060208201905061023d600083018461020a565b92915050565b60006020820190506102586000830184610219565b92915050565b60008115159050919050565b6000819050919050565b600080fd5b6102828161025e565b811461028d57600080fd5b50565b6102998161026a565b81146102a457600080fd5b5056fea264697066735822122083159f429d2e8b45dedb460468c695b31f9f172093407bb4610a6c76f6a9f5a564736f6c63430008070033",
			"opcodes": "PUSH1 0x80 PUSH1 0x40 MSTORE CALLVALUE DUP1 ISZERO PUSH2 0x10 JUMPI PUSH1 0x0 DUP1 REVERT JUMPDEST POP PUSH2 0x2DD DUP1 PUSH2 0x20 PUSH1 0x0 CODECOPY PUSH1 0x0 RETURN INVALID PUSH1 0x80 PUSH1 0x40 MSTORE CALLVALUE DUP1 ISZERO PUSH2 0x10 JUMPI PUSH1 0x0 DUP1 REVERT JUMPDEST POP PUSH1 0x4 CALLDATASIZE LT PUSH2 0x62 JUMPI PUSH1 0x0 CALLDATALOAD PUSH1 0xE0 SHR DUP1 PUSH4 0x6540F7E EQ PUSH2 0x67 JUMPI DUP1 PUSH4 0x28832A86 EQ PUSH2 0x85 JUMPI DUP1 PUSH4 0x55241077 EQ PUSH2 0x8F JUMPI DUP1 PUSH4 0x6DEECDBE EQ PUSH2 0xAB JUMPI DUP1 PUSH4 0xC96E9722 EQ PUSH2 0xC9 JUMPI DUP1 PUSH4 0xEB1B30D9 EQ PUSH2 0xE7 JUMPI JUMPDEST PUSH1 0x0 DUP1 REVERT JUMPDEST PUSH2 0x6F PUSH2 0x103 JUMP JUMPDEST PUSH1 0x40 MLOAD PUSH2 0x7C SWAP2 SWAP1 PUSH2 0x243 JUMP JUMPDEST PUSH1 0x40 MLOAD DUP1 SWAP2 SUB SWAP1 RETURN JUMPDEST PUSH2 0x8D PUSH2 0x109 JUMP JUMPDEST STOP JUMPDEST PUSH2 0xA9 PUSH1 0x4 DUP1 CALLDATASIZE SUB DUP2 ADD SWAP1 PUSH2 0xA4 SWAP2 SWAP1 PUSH2 0x1DD JUMP JUMPDEST PUSH2 0x135 JUMP JUMPDEST STOP JUMPDEST PUSH2 0xB3 PUSH2 0x13F JUMP JUMPDEST PUSH1 0x40 MLOAD PUSH2 0xC0 SWAP2 SWAP1 PUSH2 0x228 JUMP JUMPDEST PUSH1 0x40 MLOAD DUP1 SWAP2 SUB SWAP1 RETURN JUMPDEST PUSH2 0xD1 PUSH2 0x152 JUMP JUMPDEST PUSH1 0x40 MLOAD PUSH2 0xDE SWAP2 SWAP1 PUSH2 0x228 JUMP JUMPDEST PUSH1 0x40 MLOAD DUP1 SWAP2 SUB SWAP1 RETURN JUMPDEST PUSH2 0x101 PUSH1 0x4 DUP1 CALLDATASIZE SUB DUP2 ADD SWAP1 PUSH2 0xFC SWAP2 SWAP1 PUSH2 0x1B0 JUMP JUMPDEST PUSH2 0x169 JUMP JUMPDEST STOP JUMPDEST PUSH1 0x0 SLOAD DUP2 JUMP JUMPDEST PUSH1 0x1 PUSH1 0x0 SWAP1 SLOAD SWAP1 PUSH2 0x100 EXP SWAP1 DIV PUSH1 0xFF AND ISZERO PUSH1 0x1 PUSH1 0x0 PUSH2 0x100 EXP DUP2 SLOAD DUP2 PUSH1 0xFF MUL NOT AND SWAP1 DUP4 ISZERO ISZERO MUL OR SWAP1 SSTORE POP JUMP JUMPDEST DUP1 PUSH1 0x0 DUP2 SWAP1 SSTORE POP POP JUMP JUMPDEST PUSH1 0x1 PUSH1 0x0 SWAP1 SLOAD SWAP1 PUSH2 0x100 EXP SWAP1 DIV PUSH1 0xFF AND DUP2 JUMP JUMPDEST PUSH1 0x0 PUSH1 0x1 PUSH1 0x0 SWAP1 SLOAD SWAP1 PUSH2 0x100 EXP SWAP1 DIV PUSH1 0xFF AND SWAP1 POP SWAP1 JUMP JUMPDEST DUP1 PUSH1 0x1 PUSH1 0x0 PUSH2 0x100 EXP DUP2 SLOAD DUP2 PUSH1 0xFF MUL NOT AND SWAP1 DUP4 ISZERO ISZERO MUL OR SWAP1 SSTORE POP POP JUMP JUMPDEST PUSH1 0x0 DUP2 CALLDATALOAD SWAP1 POP PUSH2 0x195 DUP2 PUSH2 0x279 JUMP JUMPDEST SWAP3 SWAP2 POP POP JUMP JUMPDEST PUSH1 0x0 DUP2 CALLDATALOAD SWAP1 POP PUSH2 0x1AA DUP2 PUSH2 0x290 JUMP JUMPDEST SWAP3 SWAP2 POP POP JUMP JUMPDEST PUSH1 0x0 PUSH1 0x20 DUP3 DUP5 SUB SLT ISZERO PUSH2 0x1C6 JUMPI PUSH2 0x1C5 PUSH2 0x274 JUMP JUMPDEST JUMPDEST PUSH1 0x0 PUSH2 0x1D4 DUP5 DUP3 DUP6 ADD PUSH2 0x186 JUMP JUMPDEST SWAP2 POP POP SWAP3 SWAP2 POP POP JUMP JUMPDEST PUSH1 0x0 PUSH1 0x20 DUP3 DUP5 SUB SLT ISZERO PUSH2 0x1F3 JUMPI PUSH2 0x1F2 PUSH2 0x274 JUMP JUMPDEST JUMPDEST PUSH1 0x0 PUSH2 0x201 DUP5 DUP3 DUP6 ADD PUSH2 0x19B JUMP JUMPDEST SWAP2 POP POP SWAP3 SWAP2 POP POP JUMP JUMPDEST PUSH2 0x213 DUP2 PUSH2 0x25E JUMP JUMPDEST DUP3 MSTORE POP POP JUMP JUMPDEST PUSH2 0x222 DUP2 PUSH2 0x26A JUMP JUMPDEST DUP3 MSTORE POP POP JUMP JUMPDEST PUSH1 0x0 PUSH1 0x20 DUP3 ADD SWAP1 POP PUSH2 0x23D PUSH1 0x0 DUP4 ADD DUP5 PUSH2 0x20A JUMP JUMPDEST SWAP3 SWAP2 POP POP JUMP JUMPDEST PUSH1 0x0 PUSH1 0x20 DUP3 ADD SWAP1 POP PUSH2 0x258 PUSH1 0x0 DUP4 ADD DUP5 PUSH2 0x219 JUMP JUMPDEST SWAP3 SWAP2 POP POP JUMP JUMPDEST PUSH1 0x0 DUP2 ISZERO ISZERO SWAP1 POP SWAP2 SWAP1 POP JUMP JUMPDEST PUSH1 0x0 DUP2 SWAP1 POP SWAP2 SWAP1 POP JUMP JUMPDEST PUSH1 0x0 DUP1 REVERT JUMPDEST PUSH2 0x282 DUP2 PUSH2 0x25E JUMP JUMPDEST DUP2 EQ PUSH2 0x28D JUMPI PUSH1 0x0 DUP1 REVERT JUMPDEST POP JUMP JUMPDEST PUSH2 0x299 DUP2 PUSH2 0x26A JUMP JUMPDEST DUP2 EQ PUSH2 0x2A4 JUMPI PUSH1 0x0 DUP1 REVERT JUMPDEST POP JUMP INVALID LOG2 PUSH5 0x6970667358 0x22 SLT KECCAK256 DUP4 ISZERO SWAP16 TIMESTAMP SWAP14 0x2E DUP12 GASLIMIT 0xDE 0xDB CHAINID DIV PUSH9 0xC695B31F9F17209340 PUSH28 0xB4610A6C76F6A9F5A564736F6C634300080700330000000000000000 "
		},
		"gasEstimates": {
			"creation": {
				"codeDepositCost": "146600",
				"executionCost": "190",
				"totalCost": "146790"
			},
			"external": {
				"getMyBool()": "2545",
				"myBool()": "2515",
				"myUint()": "2407",
				"setMyBool(bool)": "24767",
				"setValue(uint256)": "22542",
				"toggleMyBool()": "26550"
			}
		},
		"methodIdentifiers": {
			"getMyBool()": "c96e9722",
			"myBool()": "6deecdbe",
			"myUint()": "06540f7e",
			"setMyBool(bool)": "eb1b30d9",
			"setValue(uint256)": "55241077",
			"toggleMyBool()": "28832a86"
		}
	},
	"abi": [
		{
			"inputs": [],
			"name": "getMyBool",
			"outputs": [
				{
					"internalType": "bool",
					"name": "",
					"type": "bool"
				}
			],
			"stateMutability": "view",
			"type": "function"
		},
		{
			"inputs": [],
			"name": "myBool",
			"outputs": [
				{
					"internalType": "bool",
					"name": "",
					"type": "bool"
				}
			],
			"stateMutability": "view",
			"type": "function"
		},
		{
			"inputs": [],
			"name": "myUint",
			"outputs": [
				{
					"internalType": "uint256",
					"name": "",
					"type": "uint256"
				}
			],
			"stateMutability": "view",
			"type": "function"
		},
		{
			"inputs": [
				{
					"internalType": "bool",
					"name": "_myBool",
					"type": "bool"
				}
			],
			"name": "setMyBool",
			"outputs": [],
			"stateMutability": "nonpayable",
			"type": "function"
		},
		{
			"inputs": [
				{
					"internalType": "uint256",
					"name": "_myUint",
					"type": "uint256"
				}
			],
			"name": "setValue",
			"outputs": [],
			"stateMutability": "nonpayable",
			"type": "function"
		},
		{
			"inputs": [],
			"name": "toggleMyBool",
			"outputs": [],
			"stateMutability": "nonpayable",
			"type": "function"
		}
	]
}